{
  "_format": "hh-sol-artifact-1",
  "contractName": "PiggyBank",
  "sourceName": "contracts/PiggyBank.sol",
  "abi": [
    {
      "inputs": [
        {
          "internalType": "contract IERC20",
          "name": "_tokenContract",
          "type": "address"
        },
        {
          "internalType": "uint8",
          "name": "_platformFee",
          "type": "uint8"
        },
        {
          "internalType": "uint8",
          "name": "_penaltyFee",
          "type": "uint8"
        }
      ],
      "stateMutability": "nonpayable",
      "type": "constructor"
    },
    {
      "anonymous": false,
      "inputs": [
        {
          "indexed": true,
          "internalType": "address",
          "name": "previousOwner",
          "type": "address"
        },
        {
          "indexed": true,
          "internalType": "address",
          "name": "newOwner",
          "type": "address"
        }
      ],
      "name": "OwnershipTransferred",
      "type": "event"
    },
    {
      "inputs": [],
      "name": "claimRewards",
      "outputs": [],
      "stateMutability": "nonpayable",
      "type": "function"
    },
    {
      "inputs": [
        {
          "internalType": "string",
          "name": "name",
          "type": "string"
        },
        {
          "internalType": "uint256",
          "name": "withdrawalDate",
          "type": "uint256"
        },
        {
          "internalType": "uint256",
          "name": "amount",
          "type": "uint256"
        }
      ],
      "name": "deposit",
      "outputs": [],
      "stateMutability": "nonpayable",
      "type": "function"
    },
    {
      "inputs": [
        {
          "internalType": "uint256",
          "name": "",
          "type": "uint256"
        }
      ],
      "name": "deposits",
      "outputs": [
        {
          "internalType": "uint256",
          "name": "id",
          "type": "uint256"
        },
        {
          "internalType": "uint256",
          "name": "depositDate",
          "type": "uint256"
        },
        {
          "internalType": "uint256",
          "name": "withdrawalDate",
          "type": "uint256"
        },
        {
          "internalType": "uint256",
          "name": "amount",
          "type": "uint256"
        },
        {
          "internalType": "string",
          "name": "name",
          "type": "string"
        },
        {
          "internalType": "bool",
          "name": "earlyWithdrawn",
          "type": "bool"
        }
      ],
      "stateMutability": "view",
      "type": "function"
    },
    {
      "inputs": [],
      "name": "getUserDeposits",
      "outputs": [
        {
          "components": [
            {
              "internalType": "uint256",
              "name": "id",
              "type": "uint256"
            },
            {
              "internalType": "uint256",
              "name": "depositDate",
              "type": "uint256"
            },
            {
              "internalType": "uint256",
              "name": "withdrawalDate",
              "type": "uint256"
            },
            {
              "internalType": "uint256",
              "name": "amount",
              "type": "uint256"
            },
            {
              "internalType": "string",
              "name": "name",
              "type": "string"
            },
            {
              "internalType": "bool",
              "name": "earlyWithdrawn",
              "type": "bool"
            }
          ],
          "internalType": "struct PiggyBank.Deposit[]",
          "name": "",
          "type": "tuple[]"
        }
      ],
      "stateMutability": "view",
      "type": "function"
    },
    {
      "inputs": [
        {
          "internalType": "address",
          "name": "user",
          "type": "address"
        }
      ],
      "name": "getUserValidDeposit",
      "outputs": [
        {
          "internalType": "uint256",
          "name": "",
          "type": "uint256"
        }
      ],
      "stateMutability": "view",
      "type": "function"
    },
    {
      "inputs": [],
      "name": "getUsers",
      "outputs": [
        {
          "internalType": "address[]",
          "name": "",
          "type": "address[]"
        }
      ],
      "stateMutability": "view",
      "type": "function"
    },
    {
      "inputs": [],
      "name": "idCounter",
      "outputs": [
        {
          "internalType": "uint256",
          "name": "_value",
          "type": "uint256"
        }
      ],
      "stateMutability": "view",
      "type": "function"
    },
    {
      "inputs": [],
      "name": "owner",
      "outputs": [
        {
          "internalType": "address",
          "name": "",
          "type": "address"
        }
      ],
      "stateMutability": "view",
      "type": "function"
    },
    {
      "inputs": [],
      "name": "ownerBalance",
      "outputs": [
        {
          "internalType": "uint256",
          "name": "",
          "type": "uint256"
        }
      ],
      "stateMutability": "view",
      "type": "function"
    },
    {
      "inputs": [],
      "name": "penaltyFee",
      "outputs": [
        {
          "internalType": "uint8",
          "name": "",
          "type": "uint8"
        }
      ],
      "stateMutability": "view",
      "type": "function"
    },
    {
      "inputs": [
        {
          "internalType": "address",
          "name": "",
          "type": "address"
        }
      ],
      "name": "pendingRewards",
      "outputs": [
        {
          "internalType": "uint256",
          "name": "",
          "type": "uint256"
        }
      ],
      "stateMutability": "view",
      "type": "function"
    },
    {
      "inputs": [],
      "name": "platformFee",
      "outputs": [
        {
          "internalType": "uint8",
          "name": "",
          "type": "uint8"
        }
      ],
      "stateMutability": "view",
      "type": "function"
    },
    {
      "inputs": [],
      "name": "renounceOwnership",
      "outputs": [],
      "stateMutability": "nonpayable",
      "type": "function"
    },
    {
      "inputs": [],
      "name": "rewardsDeadline",
      "outputs": [
        {
          "internalType": "uint256",
          "name": "",
          "type": "uint256"
        }
      ],
      "stateMutability": "view",
      "type": "function"
    },
    {
      "inputs": [],
      "name": "rewardsSpan",
      "outputs": [
        {
          "internalType": "uint256",
          "name": "",
          "type": "uint256"
        }
      ],
      "stateMutability": "view",
      "type": "function"
    },
    {
      "inputs": [],
      "name": "token",
      "outputs": [
        {
          "internalType": "contract IERC20",
          "name": "",
          "type": "address"
        }
      ],
      "stateMutability": "view",
      "type": "function"
    },
    {
      "inputs": [],
      "name": "totalBalance",
      "outputs": [
        {
          "internalType": "uint256",
          "name": "",
          "type": "uint256"
        }
      ],
      "stateMutability": "view",
      "type": "function"
    },
    {
      "inputs": [],
      "name": "totalRewards",
      "outputs": [
        {
          "internalType": "uint256",
          "name": "",
          "type": "uint256"
        }
      ],
      "stateMutability": "view",
      "type": "function"
    },
    {
      "inputs": [
        {
          "internalType": "address",
          "name": "newOwner",
          "type": "address"
        }
      ],
      "name": "transferOwnership",
      "outputs": [],
      "stateMutability": "nonpayable",
      "type": "function"
    },
    {
      "inputs": [],
      "name": "udpateRewardBalances",
      "outputs": [],
      "stateMutability": "nonpayable",
      "type": "function"
    },
    {
      "inputs": [
        {
          "internalType": "address",
          "name": "",
          "type": "address"
        },
        {
          "internalType": "uint256",
          "name": "",
          "type": "uint256"
        }
      ],
      "name": "userDeposits",
      "outputs": [
        {
          "internalType": "uint256",
          "name": "",
          "type": "uint256"
        }
      ],
      "stateMutability": "view",
      "type": "function"
    },
    {
      "inputs": [
        {
          "internalType": "uint256",
          "name": "",
          "type": "uint256"
        }
      ],
      "name": "users",
      "outputs": [
        {
          "internalType": "address",
          "name": "",
          "type": "address"
        }
      ],
      "stateMutability": "view",
      "type": "function"
    },
    {
      "inputs": [
        {
          "internalType": "uint256",
          "name": "id",
          "type": "uint256"
        },
        {
          "internalType": "uint256",
          "name": "amount",
          "type": "uint256"
        }
      ],
      "name": "withdraw",
      "outputs": [],
      "stateMutability": "nonpayable",
      "type": "function"
    },
    {
      "inputs": [
        {
          "internalType": "uint256",
          "name": "id",
          "type": "uint256"
        }
      ],
      "name": "withdrawAll",
      "outputs": [],
      "stateMutability": "nonpayable",
      "type": "function"
    }
  ],
  "bytecode": "0x608060405261012c6005553480156200001757600080fd5b5060405162002d6638038062002d6683398181016040528101906200003d91906200029f565b6200005d62000051620000ff60201b60201c565b6200010760201b60201c565b82600c60006101000a81548173ffffffffffffffffffffffffffffffffffffffff021916908373ffffffffffffffffffffffffffffffffffffffff160217905550620000ba60055442620001cb60201b6200185c1790919060201c565b60048190555081600960016101000a81548160ff021916908360ff16021790555080600960006101000a81548160ff021916908360ff16021790555050505062000391565b600033905090565b60008060009054906101000a900473ffffffffffffffffffffffffffffffffffffffff169050816000806101000a81548173ffffffffffffffffffffffffffffffffffffffff021916908373ffffffffffffffffffffffffffffffffffffffff1602179055508173ffffffffffffffffffffffffffffffffffffffff168173ffffffffffffffffffffffffffffffffffffffff167f8be0079c531659141344cd1fd0a4f28419497f9722a3daafe3b4186f6b6457e060405160405180910390a35050565b60008183620001db919062000334565b905092915050565b600080fd5b600073ffffffffffffffffffffffffffffffffffffffff82169050919050565b60006200021582620001e8565b9050919050565b6000620002298262000208565b9050919050565b6200023b816200021c565b81146200024757600080fd5b50565b6000815190506200025b8162000230565b92915050565b600060ff82169050919050565b620002798162000261565b81146200028557600080fd5b50565b60008151905062000299816200026e565b92915050565b600080600060608486031215620002bb57620002ba620001e3565b5b6000620002cb868287016200024a565b9350506020620002de8682870162000288565b9250506040620002f18682870162000288565b9150509250925092565b6000819050919050565b7f4e487b7100000000000000000000000000000000000000000000000000000000600052601160045260246000fd5b60006200034182620002fb565b91506200034e83620002fb565b9250827fffffffffffffffffffffffffffffffffffffffffffffffffffffffffffffffff0382111562000386576200038562000305565b5b828201905092915050565b6129c580620003a16000396000f3fe608060405234801561001057600080fd5b50600436106101575760003560e01c806384f00094116100c3578063b02c43d01161007c578063b02c43d01461037e578063bedcf003146103b3578063d217ebd8146103d1578063eb08ab28146103ef578063f2fde38b1461040d578063fc0c546a1461042957610157565b806384f00094146102e25780638da5cb5b146102ec578063949519441461030a578063958e2d3114610328578063a7829ffa14610344578063ad7a672f1461036057610157565b8063365b98b211610115578063365b98b214610246578063372500ab146102765780633dc10ad414610280578063441a3e701461029e578063715018a6146102ba5780637e747d7c146102c457610157565b8062ce8e3e1461015c57806305cb2d251461017a57806308f43333146101aa5780630e15561a146101da57806326232a2e146101f857806331d7a26214610216575b600080fd5b610164610447565b6040516101719190611bc1565b60405180910390f35b610194600480360381019061018f9190611c19565b6104d5565b6040516101a19190611c5f565b60405180910390f35b6101c460048036038101906101bf9190611ca6565b6106ce565b6040516101d19190611c5f565b60405180910390f35b6101e26106ff565b6040516101ef9190611c5f565b60405180910390f35b610200610705565b60405161020d9190611d02565b60405180910390f35b610230600480360381019061022b9190611c19565b610718565b60405161023d9190611c5f565b60405180910390f35b610260600480360381019061025b9190611d1d565b610730565b60405161026d9190611d59565b60405180910390f35b61027e61076f565b005b610288610927565b6040516102959190611d02565b60405180910390f35b6102b860048036038101906102b39190611d74565b61093a565b005b6102c2610cd9565b005b6102cc610ced565b6040516102d99190611c5f565b60405180910390f35b6102ea610cf3565b005b6102f4610efe565b6040516103019190611d59565b60405180910390f35b610312610f27565b60405161031f9190611fc2565b60405180910390f35b610342600480360381019061033d9190611d1d565b61116c565b005b61035e60048036038101906103599190612049565b61129c565b005b6103686116c3565b6040516103759190611c5f565b60405180910390f35b61039860048036038101906103939190611d1d565b6116c9565b6040516103aa96959493929190612116565b60405180910390f35b6103bb61179a565b6040516103c89190611c5f565b60405180910390f35b6103d96117a0565b6040516103e69190611c5f565b60405180910390f35b6103f76117a6565b6040516104049190611c5f565b60405180910390f35b61042760048036038101906104229190611c19565b6117b2565b005b610431611836565b60405161043e91906121dd565b60405180910390f35b606060028054806020026020016040519081016040528092919081815260200182805480156104cb57602002820191906000526020600020905b8160009054906101000a900473ffffffffffffffffffffffffffffffffffffffff1673ffffffffffffffffffffffffffffffffffffffff1681526020019060010190808311610481575b5050505050905090565b600080600760008473ffffffffffffffffffffffffffffffffffffffff1673ffffffffffffffffffffffffffffffffffffffff16815260200190815260200160002080548060200260200160405190810160405280929190818152602001828054801561056157602002820191906000526020600020905b81548152602001906001019080831161054d575b505050505090506000815190506000805b828110156106c257600060066000868481518110610593576105926121f8565b5b602002602001015181526020019081526020016000206040518060c0016040529081600082015481526020016001820154815260200160028201548152602001600382015481526020016004820180546105ec90612256565b80601f016020809104026020016040519081016040528092919081815260200182805461061890612256565b80156106655780601f1061063a57610100808354040283529160200191610665565b820191906000526020600020905b81548152906001019060200180831161064857829003601f168201915b505050505081526020016005820160009054906101000a900460ff16151515158152505090508060a001516106ae576106ab81606001518461185c90919063ffffffff16565b92505b5080806106ba906122b7565b915050610572565b50809350505050919050565b600760205281600052604060002081815481106106ea57600080fd5b90600052602060002001600091509150505481565b60035481565b600960019054906101000a900460ff1681565b60016020528060005260406000206000915090505481565b6002818154811061074057600080fd5b906000526020600020016000915054906101000a900473ffffffffffffffffffffffffffffffffffffffff1681565b6000600160003373ffffffffffffffffffffffffffffffffffffffff1673ffffffffffffffffffffffffffffffffffffffff16815260200190815260200160002054116107f1576040517f08c379a00000000000000000000000000000000000000000000000000000000081526004016107e89061234c565b60405180910390fd5b600c60009054906101000a900473ffffffffffffffffffffffffffffffffffffffff1673ffffffffffffffffffffffffffffffffffffffff1663a9059cbb33600160003373ffffffffffffffffffffffffffffffffffffffff1673ffffffffffffffffffffffffffffffffffffffff168152602001908152602001600020546040518363ffffffff1660e01b815260040161088d92919061236c565b602060405180830381600087803b1580156108a757600080fd5b505af11580156108bb573d6000803e3d6000fd5b505050506040513d601f19601f820116820180604052508101906108df91906123c1565b506000600160003373ffffffffffffffffffffffffffffffffffffffff1673ffffffffffffffffffffffffffffffffffffffff16815260200190815260200160002081905550565b600960009054906101000a900460ff1681565b816000805b600760003373ffffffffffffffffffffffffffffffffffffffff1673ffffffffffffffffffffffffffffffffffffffff16815260200190815260200160002080549050811015610a0457600760003373ffffffffffffffffffffffffffffffffffffffff1673ffffffffffffffffffffffffffffffffffffffff16815260200190815260200160002081815481106109da576109d96121f8565b5b90600052602060002001548314156109f157600191505b80806109fc906122b7565b91505061093f565b5080610a45576040517f08c379a0000000000000000000000000000000000000000000000000000000008152600401610a3c90612460565b60405180910390fd5b6006600085815260200190815260200160002060030154831115610a9e576040517f08c379a0000000000000000000000000000000000000000000000000000000008152600401610a95906124cc565b60405180910390fd5b6000839050610acc84600660008881526020019081526020016000206003015461187290919063ffffffff16565b600660008781526020019081526020016000206003018190555060066000868152602001908152602001600020600201544211610c07576000606480600960009054906101000a900460ff1660ff1687610b2691906124ec565b610b309190612575565b610b3a9190612575565b90506000606480600960019054906101000a900460ff1660ff1688610b5f91906124ec565b610b699190612575565b610b739190612575565b9050610b88828461187290919063ffffffff16565b9250610b9d818461187290919063ffffffff16565b925060016006600089815260200190815260200160002060050160006101000a81548160ff021916908315150217905550610be38260035461185c90919063ffffffff16565b600381905550610bfe81600a5461185c90919063ffffffff16565b600a8190555050505b600c60009054906101000a900473ffffffffffffffffffffffffffffffffffffffff1673ffffffffffffffffffffffffffffffffffffffff1663a9059cbb33836040518363ffffffff1660e01b8152600401610c6492919061236c565b602060405180830381600087803b158015610c7e57600080fd5b505af1158015610c92573d6000803e3d6000fd5b505050506040513d601f19601f82011682018060405250810190610cb691906123c1565b50610ccc84600b5461187290919063ffffffff16565b600b819055505050505050565b610ce1611888565b610ceb6000611906565b565b60055481565b600454421015610d38576040517f08c379a0000000000000000000000000000000000000000000000000000000008152600401610d2f90612618565b60405180910390fd5b60005b600280549050811015610ed8576000610d9160028381548110610d6157610d606121f8565b5b9060005260206000200160009054906101000a900473ffffffffffffffffffffffffffffffffffffffff166104d5565b90506000600b5460035483610da691906124ec565b610db09190612575565b9050610e42816001600060028781548110610dce57610dcd6121f8565b5b9060005260206000200160009054906101000a900473ffffffffffffffffffffffffffffffffffffffff1673ffffffffffffffffffffffffffffffffffffffff1673ffffffffffffffffffffffffffffffffffffffff1681526020019081526020016000205461185c90919063ffffffff16565b6001600060028681548110610e5a57610e596121f8565b5b9060005260206000200160009054906101000a900473ffffffffffffffffffffffffffffffffffffffff1673ffffffffffffffffffffffffffffffffffffffff1673ffffffffffffffffffffffffffffffffffffffff1681526020019081526020016000208190555050508080610ed0906122b7565b915050610d3b565b506000600381905550610ef66005544261185c90919063ffffffff16565b600481905550565b60008060009054906101000a900473ffffffffffffffffffffffffffffffffffffffff16905090565b60606000600760003373ffffffffffffffffffffffffffffffffffffffff1673ffffffffffffffffffffffffffffffffffffffff168152602001908152602001600020805480602002602001604051908101604052809291908181526020018280548015610fb457602002820191906000526020600020905b815481526020019060010190808311610fa0575b5050505050905060008151905060008167ffffffffffffffff811115610fdd57610fdc612638565b5b60405190808252806020026020018201604052801561101657816020015b6110036119f6565b815260200190600190039081610ffb5790505b50905060005b82811015611162576006600085838151811061103b5761103a6121f8565b5b602002602001015181526020019081526020016000206040518060c00160405290816000820154815260200160018201548152602001600282015481526020016003820154815260200160048201805461109490612256565b80601f01602080910402602001604051908101604052809291908181526020018280546110c090612256565b801561110d5780601f106110e25761010080835404028352916020019161110d565b820191906000526020600020905b8154815290600101906020018083116110f057829003601f168201915b505050505081526020016005820160009054906101000a900460ff161515151581525050828281518110611144576111436121f8565b5b6020026020010181905250808061115a906122b7565b91505061101c565b5080935050505090565b806000805b600760003373ffffffffffffffffffffffffffffffffffffffff1673ffffffffffffffffffffffffffffffffffffffff1681526020019081526020016000208054905081101561123657600760003373ffffffffffffffffffffffffffffffffffffffff1673ffffffffffffffffffffffffffffffffffffffff168152602001908152602001600020818154811061120c5761120b6121f8565b5b906000526020600020015483141561122357600191505b808061122e906122b7565b915050611171565b5080611277576040517f08c379a000000000000000000000000000000000000000000000000000000000815260040161126e90612460565b60405180910390fd5b61129783600660008681526020019081526020016000206003015461093a565b505050565b80600c60009054906101000a900473ffffffffffffffffffffffffffffffffffffffff1673ffffffffffffffffffffffffffffffffffffffff1663dd62ed3e33306040518363ffffffff1660e01b81526004016112fa929190612667565b60206040518083038186803b15801561131257600080fd5b505afa158015611326573d6000803e3d6000fd5b505050506040513d601f19601f8201168201806040525081019061134a91906126a5565b101561138b576040517f08c379a00000000000000000000000000000000000000000000000000000000081526004016113829061271e565b60405180910390fd5b60004290508083116113d2576040517f08c379a00000000000000000000000000000000000000000000000000000000081526004016113c9906127b0565b60405180910390fd5b60006113de60086119ca565b90506113ea60086119d8565b6040518060c0016040528082815260200183815260200185815260200184815260200187878080601f016020809104026020016040519081016040528093929190818152602001838380828437600081840152601f19601f82011690508083019250505050505050815260200160001515815250600660008381526020019081526020016000206000820151816000015560208201518160010155604082015181600201556060820151816003015560808201518160040190805190602001906114b5929190611a2e565b5060a08201518160050160006101000a81548160ff0219169083151502179055509050506000600760003373ffffffffffffffffffffffffffffffffffffffff1673ffffffffffffffffffffffffffffffffffffffff168152602001908152602001600020805490501415611588576002339080600181540180825580915050600190039060005260206000200160009091909190916101000a81548173ffffffffffffffffffffffffffffffffffffffff021916908373ffffffffffffffffffffffffffffffffffffffff1602179055505b600760003373ffffffffffffffffffffffffffffffffffffffff1673ffffffffffffffffffffffffffffffffffffffff168152602001908152602001600020819080600181540180825580915050600190039060005260206000200160009091909190915055600c60009054906101000a900473ffffffffffffffffffffffffffffffffffffffff1673ffffffffffffffffffffffffffffffffffffffff166323b872dd3330866040518463ffffffff1660e01b815260040161164d939291906127d0565b602060405180830381600087803b15801561166757600080fd5b505af115801561167b573d6000803e3d6000fd5b505050506040513d601f19601f8201168201806040525081019061169f91906123c1565b506116b583600b5461185c90919063ffffffff16565b600b81905550505050505050565b600b5481565b600660205280600052604060002060009150905080600001549080600101549080600201549080600301549080600401805461170490612256565b80601f016020809104026020016040519081016040528092919081815260200182805461173090612256565b801561177d5780601f106117525761010080835404028352916020019161177d565b820191906000526020600020905b81548152906001019060200180831161176057829003601f168201915b5050505050908060050160009054906101000a900460ff16905086565b600a5481565b60045481565b60088060000154905081565b6117ba611888565b600073ffffffffffffffffffffffffffffffffffffffff168173ffffffffffffffffffffffffffffffffffffffff16141561182a576040517f08c379a000000000000000000000000000000000000000000000000000000000815260040161182190612879565b60405180910390fd5b61183381611906565b50565b600c60009054906101000a900473ffffffffffffffffffffffffffffffffffffffff1681565b6000818361186a9190612899565b905092915050565b6000818361188091906128ef565b905092915050565b6118906119ee565b73ffffffffffffffffffffffffffffffffffffffff166118ae610efe565b73ffffffffffffffffffffffffffffffffffffffff1614611904576040517f08c379a00000000000000000000000000000000000000000000000000000000081526004016118fb9061296f565b60405180910390fd5b565b60008060009054906101000a900473ffffffffffffffffffffffffffffffffffffffff169050816000806101000a81548173ffffffffffffffffffffffffffffffffffffffff021916908373ffffffffffffffffffffffffffffffffffffffff1602179055508173ffffffffffffffffffffffffffffffffffffffff168173ffffffffffffffffffffffffffffffffffffffff167f8be0079c531659141344cd1fd0a4f28419497f9722a3daafe3b4186f6b6457e060405160405180910390a35050565b600081600001549050919050565b6001816000016000828254019250508190555050565b600033905090565b6040518060c0016040528060008152602001600081526020016000815260200160008152602001606081526020016000151581525090565b828054611a3a90612256565b90600052602060002090601f016020900481019282611a5c5760008555611aa3565b82601f10611a7557805160ff1916838001178555611aa3565b82800160010185558215611aa3579182015b82811115611aa2578251825591602001919060010190611a87565b5b509050611ab09190611ab4565b5090565b5b80821115611acd576000816000905550600101611ab5565b5090565b600081519050919050565b600082825260208201905092915050565b6000819050602082019050919050565b600073ffffffffffffffffffffffffffffffffffffffff82169050919050565b6000611b2882611afd565b9050919050565b611b3881611b1d565b82525050565b6000611b4a8383611b2f565b60208301905092915050565b6000602082019050919050565b6000611b6e82611ad1565b611b788185611adc565b9350611b8383611aed565b8060005b83811015611bb4578151611b9b8882611b3e565b9750611ba683611b56565b925050600181019050611b87565b5085935050505092915050565b60006020820190508181036000830152611bdb8184611b63565b905092915050565b600080fd5b600080fd5b611bf681611b1d565b8114611c0157600080fd5b50565b600081359050611c1381611bed565b92915050565b600060208284031215611c2f57611c2e611be3565b5b6000611c3d84828501611c04565b91505092915050565b6000819050919050565b611c5981611c46565b82525050565b6000602082019050611c746000830184611c50565b92915050565b611c8381611c46565b8114611c8e57600080fd5b50565b600081359050611ca081611c7a565b92915050565b60008060408385031215611cbd57611cbc611be3565b5b6000611ccb85828601611c04565b9250506020611cdc85828601611c91565b9150509250929050565b600060ff82169050919050565b611cfc81611ce6565b82525050565b6000602082019050611d176000830184611cf3565b92915050565b600060208284031215611d3357611d32611be3565b5b6000611d4184828501611c91565b91505092915050565b611d5381611b1d565b82525050565b6000602082019050611d6e6000830184611d4a565b92915050565b60008060408385031215611d8b57611d8a611be3565b5b6000611d9985828601611c91565b9250506020611daa85828601611c91565b9150509250929050565b600081519050919050565b600082825260208201905092915050565b6000819050602082019050919050565b611de981611c46565b82525050565b600081519050919050565b600082825260208201905092915050565b60005b83811015611e29578082015181840152602081019050611e0e565b83811115611e38576000848401525b50505050565b6000601f19601f8301169050919050565b6000611e5a82611def565b611e648185611dfa565b9350611e74818560208601611e0b565b611e7d81611e3e565b840191505092915050565b60008115159050919050565b611e9d81611e88565b82525050565b600060c083016000830151611ebb6000860182611de0565b506020830151611ece6020860182611de0565b506040830151611ee16040860182611de0565b506060830151611ef46060860182611de0565b5060808301518482036080860152611f0c8282611e4f565b91505060a0830151611f2160a0860182611e94565b508091505092915050565b6000611f388383611ea3565b905092915050565b6000602082019050919050565b6000611f5882611db4565b611f628185611dbf565b935083602082028501611f7485611dd0565b8060005b85811015611fb05784840389528151611f918582611f2c565b9450611f9c83611f40565b925060208a01995050600181019050611f78565b50829750879550505050505092915050565b60006020820190508181036000830152611fdc8184611f4d565b905092915050565b600080fd5b600080fd5b600080fd5b60008083601f84011261200957612008611fe4565b5b8235905067ffffffffffffffff81111561202657612025611fe9565b5b60208301915083600182028301111561204257612041611fee565b5b9250929050565b6000806000806060858703121561206357612062611be3565b5b600085013567ffffffffffffffff81111561208157612080611be8565b5b61208d87828801611ff3565b945094505060206120a087828801611c91565b92505060406120b187828801611c91565b91505092959194509250565b600082825260208201905092915050565b60006120d982611def565b6120e381856120bd565b93506120f3818560208601611e0b565b6120fc81611e3e565b840191505092915050565b61211081611e88565b82525050565b600060c08201905061212b6000830189611c50565b6121386020830188611c50565b6121456040830187611c50565b6121526060830186611c50565b818103608083015261216481856120ce565b905061217360a0830184612107565b979650505050505050565b6000819050919050565b60006121a361219e61219984611afd565b61217e565b611afd565b9050919050565b60006121b582612188565b9050919050565b60006121c7826121aa565b9050919050565b6121d7816121bc565b82525050565b60006020820190506121f260008301846121ce565b92915050565b7f4e487b7100000000000000000000000000000000000000000000000000000000600052603260045260246000fd5b7f4e487b7100000000000000000000000000000000000000000000000000000000600052602260045260246000fd5b6000600282049050600182168061226e57607f821691505b6020821081141561228257612281612227565b5b50919050565b7f4e487b7100000000000000000000000000000000000000000000000000000000600052601160045260246000fd5b60006122c282611c46565b91507fffffffffffffffffffffffffffffffffffffffffffffffffffffffffffffffff8214156122f5576122f4612288565b5b600182019050919050565b7f4e6f207265776172647320746f2072656465656d000000000000000000000000600082015250565b60006123366014836120bd565b915061234182612300565b602082019050919050565b6000602082019050818103600083015261236581612329565b9050919050565b60006040820190506123816000830185611d4a565b61238e6020830184611c50565b9392505050565b61239e81611e88565b81146123a957600080fd5b50565b6000815190506123bb81612395565b92915050565b6000602082840312156123d7576123d6611be3565b5b60006123e5848285016123ac565b91505092915050565b7f43616c6c6572206973206e6f7420746865206f776e6572206f6620746865206460008201527f65706f7369742e00000000000000000000000000000000000000000000000000602082015250565b600061244a6027836120bd565b9150612455826123ee565b604082019050919050565b600060208201905081810360008301526124798161243d565b9050919050565b7f4e6f20656e6f7567682066756e64732e00000000000000000000000000000000600082015250565b60006124b66010836120bd565b91506124c182612480565b602082019050919050565b600060208201905081810360008301526124e5816124a9565b9050919050565b60006124f782611c46565b915061250283611c46565b9250817fffffffffffffffffffffffffffffffffffffffffffffffffffffffffffffffff048311821515161561253b5761253a612288565b5b828202905092915050565b7f4e487b7100000000000000000000000000000000000000000000000000000000600052601260045260246000fd5b600061258082611c46565b915061258b83611c46565b92508261259b5761259a612546565b5b828204905092915050565b7f526577617264732063616e6e6f7420626520736574207965742c20646561646c60008201527f696e65206e6f7420726561636865640000000000000000000000000000000000602082015250565b6000612602602f836120bd565b915061260d826125a6565b604082019050919050565b60006020820190508181036000830152612631816125f5565b9050919050565b7f4e487b7100000000000000000000000000000000000000000000000000000000600052604160045260246000fd5b600060408201905061267c6000830185611d4a565b6126896020830184611d4a565b9392505050565b60008151905061269f81611c7a565b92915050565b6000602082840312156126bb576126ba611be3565b5b60006126c984828501612690565b91505092915050565b7f496e73756666696369656e7420616c6c6f77616e636500000000000000000000600082015250565b60006127086016836120bd565b9150612713826126d2565b602082019050919050565b60006020820190508181036000830152612737816126fb565b9050919050565b7f5769746864726177616c20646174652073686f756c6420626520696e2074686560008201527f206675747572652e000000000000000000000000000000000000000000000000602082015250565b600061279a6028836120bd565b91506127a58261273e565b604082019050919050565b600060208201905081810360008301526127c98161278d565b9050919050565b60006060820190506127e56000830186611d4a565b6127f26020830185611d4a565b6127ff6040830184611c50565b949350505050565b7f4f776e61626c653a206e6577206f776e657220697320746865207a65726f206160008201527f6464726573730000000000000000000000000000000000000000000000000000602082015250565b60006128636026836120bd565b915061286e82612807565b604082019050919050565b6000602082019050818103600083015261289281612856565b9050919050565b60006128a482611c46565b91506128af83611c46565b9250827fffffffffffffffffffffffffffffffffffffffffffffffffffffffffffffffff038211156128e4576128e3612288565b5b828201905092915050565b60006128fa82611c46565b915061290583611c46565b92508282101561291857612917612288565b5b828203905092915050565b7f4f776e61626c653a2063616c6c6572206973206e6f7420746865206f776e6572600082015250565b60006129596020836120bd565b915061296482612923565b602082019050919050565b600060208201905081810360008301526129888161294c565b905091905056fea2646970667358221220ab854228e71d48e5731aea10bfabe3a5ca9d3909385ee0fb0b9e3b3b63c2e38864736f6c63430008090033",
  "linkReferences": {},
  "deployedLinkReferences": {}
}