{
  "_format": "hh-sol-artifact-1",
  "contractName": "PiggyBank",
  "sourceName": "contracts/PiggyBank.sol",
  "abi": [
    {
      "inputs": [
        {
          "internalType": "contract IERC20",
          "name": "_tokenContract",
          "type": "address"
        },
        {
          "internalType": "uint8",
          "name": "_platformFee",
          "type": "uint8"
        },
        {
          "internalType": "uint8",
          "name": "_penaltyFee",
          "type": "uint8"
        }
      ],
      "stateMutability": "nonpayable",
      "type": "constructor"
    },
    {
      "anonymous": false,
      "inputs": [
        {
          "indexed": true,
          "internalType": "address",
          "name": "previousOwner",
          "type": "address"
        },
        {
          "indexed": true,
          "internalType": "address",
          "name": "newOwner",
          "type": "address"
        }
      ],
      "name": "OwnershipTransferred",
      "type": "event"
    },
    {
      "inputs": [],
      "name": "claimRewards",
      "outputs": [],
      "stateMutability": "nonpayable",
      "type": "function"
    },
    {
      "inputs": [
        {
          "internalType": "string",
          "name": "name",
          "type": "string"
        },
        {
          "internalType": "uint256",
          "name": "withdrawalDate",
          "type": "uint256"
        },
        {
          "internalType": "uint256",
          "name": "amount",
          "type": "uint256"
        }
      ],
      "name": "deposit",
      "outputs": [],
      "stateMutability": "nonpayable",
      "type": "function"
    },
    {
      "inputs": [
        {
          "internalType": "uint256",
          "name": "",
          "type": "uint256"
        }
      ],
      "name": "deposits",
      "outputs": [
        {
          "internalType": "uint256",
          "name": "id",
          "type": "uint256"
        },
        {
          "internalType": "uint256",
          "name": "depositDate",
          "type": "uint256"
        },
        {
          "internalType": "uint256",
          "name": "withdrawalDate",
          "type": "uint256"
        },
        {
          "internalType": "uint256",
          "name": "amount",
          "type": "uint256"
        },
        {
          "internalType": "string",
          "name": "name",
          "type": "string"
        },
        {
          "internalType": "bool",
          "name": "earlyWithdrawn",
          "type": "bool"
        }
      ],
      "stateMutability": "view",
      "type": "function"
    },
    {
      "inputs": [
        {
          "internalType": "address",
          "name": "user",
          "type": "address"
        }
      ],
      "name": "getUserDeposits",
      "outputs": [
        {
          "components": [
            {
              "internalType": "uint256",
              "name": "id",
              "type": "uint256"
            },
            {
              "internalType": "uint256",
              "name": "depositDate",
              "type": "uint256"
            },
            {
              "internalType": "uint256",
              "name": "withdrawalDate",
              "type": "uint256"
            },
            {
              "internalType": "uint256",
              "name": "amount",
              "type": "uint256"
            },
            {
              "internalType": "string",
              "name": "name",
              "type": "string"
            },
            {
              "internalType": "bool",
              "name": "earlyWithdrawn",
              "type": "bool"
            }
          ],
          "internalType": "struct PiggyBank.Deposit[]",
          "name": "",
          "type": "tuple[]"
        }
      ],
      "stateMutability": "view",
      "type": "function"
    },
    {
      "inputs": [
        {
          "internalType": "address",
          "name": "user",
          "type": "address"
        }
      ],
      "name": "getUserValidDeposit",
      "outputs": [
        {
          "internalType": "uint256",
          "name": "",
          "type": "uint256"
        }
      ],
      "stateMutability": "view",
      "type": "function"
    },
    {
      "inputs": [],
      "name": "getUsers",
      "outputs": [
        {
          "internalType": "address[]",
          "name": "",
          "type": "address[]"
        }
      ],
      "stateMutability": "view",
      "type": "function"
    },
    {
      "inputs": [],
      "name": "idCounter",
      "outputs": [
        {
          "internalType": "uint256",
          "name": "_value",
          "type": "uint256"
        }
      ],
      "stateMutability": "view",
      "type": "function"
    },
    {
      "inputs": [],
      "name": "owner",
      "outputs": [
        {
          "internalType": "address",
          "name": "",
          "type": "address"
        }
      ],
      "stateMutability": "view",
      "type": "function"
    },
    {
      "inputs": [],
      "name": "ownerBalance",
      "outputs": [
        {
          "internalType": "uint256",
          "name": "",
          "type": "uint256"
        }
      ],
      "stateMutability": "view",
      "type": "function"
    },
    {
      "inputs": [],
      "name": "penaltyFee",
      "outputs": [
        {
          "internalType": "uint8",
          "name": "",
          "type": "uint8"
        }
      ],
      "stateMutability": "view",
      "type": "function"
    },
    {
      "inputs": [
        {
          "internalType": "address",
          "name": "",
          "type": "address"
        }
      ],
      "name": "pendingRewards",
      "outputs": [
        {
          "internalType": "uint256",
          "name": "",
          "type": "uint256"
        }
      ],
      "stateMutability": "view",
      "type": "function"
    },
    {
      "inputs": [],
      "name": "platformFee",
      "outputs": [
        {
          "internalType": "uint8",
          "name": "",
          "type": "uint8"
        }
      ],
      "stateMutability": "view",
      "type": "function"
    },
    {
      "inputs": [],
      "name": "renounceOwnership",
      "outputs": [],
      "stateMutability": "nonpayable",
      "type": "function"
    },
    {
      "inputs": [],
      "name": "rewardsDeadline",
      "outputs": [
        {
          "internalType": "uint256",
          "name": "",
          "type": "uint256"
        }
      ],
      "stateMutability": "view",
      "type": "function"
    },
    {
      "inputs": [],
      "name": "rewardsSpan",
      "outputs": [
        {
          "internalType": "uint256",
          "name": "",
          "type": "uint256"
        }
      ],
      "stateMutability": "view",
      "type": "function"
    },
    {
      "inputs": [],
      "name": "token",
      "outputs": [
        {
          "internalType": "contract IERC20",
          "name": "",
          "type": "address"
        }
      ],
      "stateMutability": "view",
      "type": "function"
    },
    {
      "inputs": [],
      "name": "totalBalance",
      "outputs": [
        {
          "internalType": "uint256",
          "name": "",
          "type": "uint256"
        }
      ],
      "stateMutability": "view",
      "type": "function"
    },
    {
      "inputs": [],
      "name": "totalRewards",
      "outputs": [
        {
          "internalType": "uint256",
          "name": "",
          "type": "uint256"
        }
      ],
      "stateMutability": "view",
      "type": "function"
    },
    {
      "inputs": [
        {
          "internalType": "address",
          "name": "newOwner",
          "type": "address"
        }
      ],
      "name": "transferOwnership",
      "outputs": [],
      "stateMutability": "nonpayable",
      "type": "function"
    },
    {
      "inputs": [],
      "name": "udpateRewardBalances",
      "outputs": [],
      "stateMutability": "nonpayable",
      "type": "function"
    },
    {
      "inputs": [
        {
          "internalType": "address",
          "name": "",
          "type": "address"
        },
        {
          "internalType": "uint256",
          "name": "",
          "type": "uint256"
        }
      ],
      "name": "userDeposits",
      "outputs": [
        {
          "internalType": "uint256",
          "name": "",
          "type": "uint256"
        }
      ],
      "stateMutability": "view",
      "type": "function"
    },
    {
      "inputs": [
        {
          "internalType": "uint256",
          "name": "",
          "type": "uint256"
        }
      ],
      "name": "users",
      "outputs": [
        {
          "internalType": "address",
          "name": "",
          "type": "address"
        }
      ],
      "stateMutability": "view",
      "type": "function"
    },
    {
      "inputs": [
        {
          "internalType": "uint256",
          "name": "id",
          "type": "uint256"
        },
        {
          "internalType": "uint256",
          "name": "amount",
          "type": "uint256"
        }
      ],
      "name": "withdraw",
      "outputs": [],
      "stateMutability": "nonpayable",
      "type": "function"
    },
    {
      "inputs": [
        {
          "internalType": "uint256",
          "name": "id",
          "type": "uint256"
        }
      ],
      "name": "withdrawAll",
      "outputs": [],
      "stateMutability": "nonpayable",
      "type": "function"
    }
  ],
  "bytecode": "0x608060405261012c6005553480156200001757600080fd5b5060405162002d7a38038062002d7a83398181016040528101906200003d91906200029f565b6200005d62000051620000ff60201b60201c565b6200010760201b60201c565b82600c60006101000a81548173ffffffffffffffffffffffffffffffffffffffff021916908373ffffffffffffffffffffffffffffffffffffffff160217905550620000ba60055442620001cb60201b620018701790919060201c565b60048190555081600960016101000a81548160ff021916908360ff16021790555080600960006101000a81548160ff021916908360ff16021790555050505062000391565b600033905090565b60008060009054906101000a900473ffffffffffffffffffffffffffffffffffffffff169050816000806101000a81548173ffffffffffffffffffffffffffffffffffffffff021916908373ffffffffffffffffffffffffffffffffffffffff1602179055508173ffffffffffffffffffffffffffffffffffffffff168173ffffffffffffffffffffffffffffffffffffffff167f8be0079c531659141344cd1fd0a4f28419497f9722a3daafe3b4186f6b6457e060405160405180910390a35050565b60008183620001db919062000334565b905092915050565b600080fd5b600073ffffffffffffffffffffffffffffffffffffffff82169050919050565b60006200021582620001e8565b9050919050565b6000620002298262000208565b9050919050565b6200023b816200021c565b81146200024757600080fd5b50565b6000815190506200025b8162000230565b92915050565b600060ff82169050919050565b620002798162000261565b81146200028557600080fd5b50565b60008151905062000299816200026e565b92915050565b600080600060608486031215620002bb57620002ba620001e3565b5b6000620002cb868287016200024a565b9350506020620002de8682870162000288565b9250506040620002f18682870162000288565b9150509250925092565b6000819050919050565b7f4e487b7100000000000000000000000000000000000000000000000000000000600052601160045260246000fd5b60006200034182620002fb565b91506200034e83620002fb565b9250827fffffffffffffffffffffffffffffffffffffffffffffffffffffffffffffffff0382111562000386576200038562000305565b5b828201905092915050565b6129d980620003a16000396000f3fe608060405234801561001057600080fd5b50600436106101575760003560e01c80637e747d7c116100c3578063b02c43d01161007c578063b02c43d014610390578063bedcf003146103c5578063d217ebd8146103e3578063eb08ab2814610401578063f2fde38b1461041f578063fc0c546a1461043b57610157565b80637e747d7c146102f457806384f00094146103125780638da5cb5b1461031c578063958e2d311461033a578063a7829ffa14610356578063ad7a672f1461037257610157565b806331d7a2621161011557806331d7a26214610246578063365b98b214610276578063372500ab146102a65780633dc10ad4146102b0578063441a3e70146102ce578063715018a6146102ea57610157565b8062ce8e3e1461015c57806305cb2d251461017a57806308f43333146101aa5780630e15561a146101da57806326232a2e146101f85780632a5bf6d214610216575b600080fd5b610164610459565b6040516101719190611bd5565b60405180910390f35b610194600480360381019061018f9190611c2d565b6104e7565b6040516101a19190611c73565b60405180910390f35b6101c460048036038101906101bf9190611cba565b6106e0565b6040516101d19190611c73565b60405180910390f35b6101e2610711565b6040516101ef9190611c73565b60405180910390f35b610200610717565b60405161020d9190611d16565b60405180910390f35b610230600480360381019061022b9190611c2d565b61072a565b60405161023d9190611f3f565b60405180910390f35b610260600480360381019061025b9190611c2d565b610971565b60405161026d9190611c73565b60405180910390f35b610290600480360381019061028b9190611f61565b610989565b60405161029d9190611f9d565b60405180910390f35b6102ae6109c8565b005b6102b8610b80565b6040516102c59190611d16565b60405180910390f35b6102e860048036038101906102e39190611fb8565b610b93565b005b6102f2610f32565b005b6102fc610f46565b6040516103099190611c73565b60405180910390f35b61031a610f4c565b005b610324611157565b6040516103319190611f9d565b60405180910390f35b610354600480360381019061034f9190611f61565b611180565b005b610370600480360381019061036b919061205d565b6112b0565b005b61037a6116d7565b6040516103879190611c73565b60405180910390f35b6103aa60048036038101906103a59190611f61565b6116dd565b6040516103bc9695949392919061212a565b60405180910390f35b6103cd6117ae565b6040516103da9190611c73565b60405180910390f35b6103eb6117b4565b6040516103f89190611c73565b60405180910390f35b6104096117ba565b6040516104169190611c73565b60405180910390f35b61043960048036038101906104349190611c2d565b6117c6565b005b61044361184a565b60405161045091906121f1565b60405180910390f35b606060028054806020026020016040519081016040528092919081815260200182805480156104dd57602002820191906000526020600020905b8160009054906101000a900473ffffffffffffffffffffffffffffffffffffffff1673ffffffffffffffffffffffffffffffffffffffff1681526020019060010190808311610493575b5050505050905090565b600080600760008473ffffffffffffffffffffffffffffffffffffffff1673ffffffffffffffffffffffffffffffffffffffff16815260200190815260200160002080548060200260200160405190810160405280929190818152602001828054801561057357602002820191906000526020600020905b81548152602001906001019080831161055f575b505050505090506000815190506000805b828110156106d4576000600660008684815181106105a5576105a461220c565b5b602002602001015181526020019081526020016000206040518060c0016040529081600082015481526020016001820154815260200160028201548152602001600382015481526020016004820180546105fe9061226a565b80601f016020809104026020016040519081016040528092919081815260200182805461062a9061226a565b80156106775780601f1061064c57610100808354040283529160200191610677565b820191906000526020600020905b81548152906001019060200180831161065a57829003601f168201915b505050505081526020016005820160009054906101000a900460ff16151515158152505090508060a001516106c0576106bd81606001518461187090919063ffffffff16565b92505b5080806106cc906122cb565b915050610584565b50809350505050919050565b600760205281600052604060002081815481106106fc57600080fd5b90600052602060002001600091509150505481565b60035481565b600960019054906101000a900460ff1681565b60606000600760008473ffffffffffffffffffffffffffffffffffffffff1673ffffffffffffffffffffffffffffffffffffffff1681526020019081526020016000208054806020026020016040519081016040528092919081815260200182805480156107b757602002820191906000526020600020905b8154815260200190600101908083116107a3575b5050505050905060008151905060008167ffffffffffffffff8111156107e0576107df612314565b5b60405190808252806020026020018201604052801561081957816020015b610806611a0a565b8152602001906001900390816107fe5790505b50905060005b82811015610965576006600085838151811061083e5761083d61220c565b5b602002602001015181526020019081526020016000206040518060c0016040529081600082015481526020016001820154815260200160028201548152602001600382015481526020016004820180546108979061226a565b80601f01602080910402602001604051908101604052809291908181526020018280546108c39061226a565b80156109105780601f106108e557610100808354040283529160200191610910565b820191906000526020600020905b8154815290600101906020018083116108f357829003601f168201915b505050505081526020016005820160009054906101000a900460ff1615151515815250508282815181106109475761094661220c565b5b6020026020010181905250808061095d906122cb565b91505061081f565b50809350505050919050565b60016020528060005260406000206000915090505481565b6002818154811061099957600080fd5b906000526020600020016000915054906101000a900473ffffffffffffffffffffffffffffffffffffffff1681565b6000600160003373ffffffffffffffffffffffffffffffffffffffff1673ffffffffffffffffffffffffffffffffffffffff1681526020019081526020016000205411610a4a576040517f08c379a0000000000000000000000000000000000000000000000000000000008152600401610a419061238f565b60405180910390fd5b600c60009054906101000a900473ffffffffffffffffffffffffffffffffffffffff1673ffffffffffffffffffffffffffffffffffffffff1663a9059cbb33600160003373ffffffffffffffffffffffffffffffffffffffff1673ffffffffffffffffffffffffffffffffffffffff168152602001908152602001600020546040518363ffffffff1660e01b8152600401610ae69291906123af565b602060405180830381600087803b158015610b0057600080fd5b505af1158015610b14573d6000803e3d6000fd5b505050506040513d601f19601f82011682018060405250810190610b389190612404565b506000600160003373ffffffffffffffffffffffffffffffffffffffff1673ffffffffffffffffffffffffffffffffffffffff16815260200190815260200160002081905550565b600960009054906101000a900460ff1681565b816000805b600760003373ffffffffffffffffffffffffffffffffffffffff1673ffffffffffffffffffffffffffffffffffffffff16815260200190815260200160002080549050811015610c5d57600760003373ffffffffffffffffffffffffffffffffffffffff1673ffffffffffffffffffffffffffffffffffffffff1681526020019081526020016000208181548110610c3357610c3261220c565b5b9060005260206000200154831415610c4a57600191505b8080610c55906122cb565b915050610b98565b5080610c9e576040517f08c379a0000000000000000000000000000000000000000000000000000000008152600401610c95906124a3565b60405180910390fd5b6006600085815260200190815260200160002060030154831115610cf7576040517f08c379a0000000000000000000000000000000000000000000000000000000008152600401610cee9061250f565b60405180910390fd5b6000839050610d2584600660008881526020019081526020016000206003015461188690919063ffffffff16565b600660008781526020019081526020016000206003018190555060066000868152602001908152602001600020600201544211610e60576000606480600960009054906101000a900460ff1660ff1687610d7f919061252f565b610d8991906125b8565b610d9391906125b8565b90506000606480600960019054906101000a900460ff1660ff1688610db8919061252f565b610dc291906125b8565b610dcc91906125b8565b9050610de1828461188690919063ffffffff16565b9250610df6818461188690919063ffffffff16565b925060016006600089815260200190815260200160002060050160006101000a81548160ff021916908315150217905550610e3c8260035461187090919063ffffffff16565b600381905550610e5781600a5461187090919063ffffffff16565b600a8190555050505b600c60009054906101000a900473ffffffffffffffffffffffffffffffffffffffff1673ffffffffffffffffffffffffffffffffffffffff1663a9059cbb33836040518363ffffffff1660e01b8152600401610ebd9291906123af565b602060405180830381600087803b158015610ed757600080fd5b505af1158015610eeb573d6000803e3d6000fd5b505050506040513d601f19601f82011682018060405250810190610f0f9190612404565b50610f2584600b5461188690919063ffffffff16565b600b819055505050505050565b610f3a61189c565b610f44600061191a565b565b60055481565b600454421015610f91576040517f08c379a0000000000000000000000000000000000000000000000000000000008152600401610f889061265b565b60405180910390fd5b60005b600280549050811015611131576000610fea60028381548110610fba57610fb961220c565b5b9060005260206000200160009054906101000a900473ffffffffffffffffffffffffffffffffffffffff166104e7565b90506000600b5460035483610fff919061252f565b61100991906125b8565b905061109b8160016000600287815481106110275761102661220c565b5b9060005260206000200160009054906101000a900473ffffffffffffffffffffffffffffffffffffffff1673ffffffffffffffffffffffffffffffffffffffff1673ffffffffffffffffffffffffffffffffffffffff1681526020019081526020016000205461187090919063ffffffff16565b60016000600286815481106110b3576110b261220c565b5b9060005260206000200160009054906101000a900473ffffffffffffffffffffffffffffffffffffffff1673ffffffffffffffffffffffffffffffffffffffff1673ffffffffffffffffffffffffffffffffffffffff1681526020019081526020016000208190555050508080611129906122cb565b915050610f94565b50600060038190555061114f6005544261187090919063ffffffff16565b600481905550565b60008060009054906101000a900473ffffffffffffffffffffffffffffffffffffffff16905090565b806000805b600760003373ffffffffffffffffffffffffffffffffffffffff1673ffffffffffffffffffffffffffffffffffffffff1681526020019081526020016000208054905081101561124a57600760003373ffffffffffffffffffffffffffffffffffffffff1673ffffffffffffffffffffffffffffffffffffffff16815260200190815260200160002081815481106112205761121f61220c565b5b906000526020600020015483141561123757600191505b8080611242906122cb565b915050611185565b508061128b576040517f08c379a0000000000000000000000000000000000000000000000000000000008152600401611282906124a3565b60405180910390fd5b6112ab836006600086815260200190815260200160002060030154610b93565b505050565b80600c60009054906101000a900473ffffffffffffffffffffffffffffffffffffffff1673ffffffffffffffffffffffffffffffffffffffff1663dd62ed3e33306040518363ffffffff1660e01b815260040161130e92919061267b565b60206040518083038186803b15801561132657600080fd5b505afa15801561133a573d6000803e3d6000fd5b505050506040513d601f19601f8201168201806040525081019061135e91906126b9565b101561139f576040517f08c379a000000000000000000000000000000000000000000000000000000000815260040161139690612732565b60405180910390fd5b60004290508083116113e6576040517f08c379a00000000000000000000000000000000000000000000000000000000081526004016113dd906127c4565b60405180910390fd5b60006113f260086119de565b90506113fe60086119ec565b6040518060c0016040528082815260200183815260200185815260200184815260200187878080601f016020809104026020016040519081016040528093929190818152602001838380828437600081840152601f19601f82011690508083019250505050505050815260200160001515815250600660008381526020019081526020016000206000820151816000015560208201518160010155604082015181600201556060820151816003015560808201518160040190805190602001906114c9929190611a42565b5060a08201518160050160006101000a81548160ff0219169083151502179055509050506000600760003373ffffffffffffffffffffffffffffffffffffffff1673ffffffffffffffffffffffffffffffffffffffff16815260200190815260200160002080549050141561159c576002339080600181540180825580915050600190039060005260206000200160009091909190916101000a81548173ffffffffffffffffffffffffffffffffffffffff021916908373ffffffffffffffffffffffffffffffffffffffff1602179055505b600760003373ffffffffffffffffffffffffffffffffffffffff1673ffffffffffffffffffffffffffffffffffffffff168152602001908152602001600020819080600181540180825580915050600190039060005260206000200160009091909190915055600c60009054906101000a900473ffffffffffffffffffffffffffffffffffffffff1673ffffffffffffffffffffffffffffffffffffffff166323b872dd3330866040518463ffffffff1660e01b8152600401611661939291906127e4565b602060405180830381600087803b15801561167b57600080fd5b505af115801561168f573d6000803e3d6000fd5b505050506040513d601f19601f820116820180604052508101906116b39190612404565b506116c983600b5461187090919063ffffffff16565b600b81905550505050505050565b600b5481565b60066020528060005260406000206000915090508060000154908060010154908060020154908060030154908060040180546117189061226a565b80601f01602080910402602001604051908101604052809291908181526020018280546117449061226a565b80156117915780601f1061176657610100808354040283529160200191611791565b820191906000526020600020905b81548152906001019060200180831161177457829003601f168201915b5050505050908060050160009054906101000a900460ff16905086565b600a5481565b60045481565b60088060000154905081565b6117ce61189c565b600073ffffffffffffffffffffffffffffffffffffffff168173ffffffffffffffffffffffffffffffffffffffff16141561183e576040517f08c379a00000000000000000000000000000000000000000000000000000000081526004016118359061288d565b60405180910390fd5b6118478161191a565b50565b600c60009054906101000a900473ffffffffffffffffffffffffffffffffffffffff1681565b6000818361187e91906128ad565b905092915050565b600081836118949190612903565b905092915050565b6118a4611a02565b73ffffffffffffffffffffffffffffffffffffffff166118c2611157565b73ffffffffffffffffffffffffffffffffffffffff1614611918576040517f08c379a000000000000000000000000000000000000000000000000000000000815260040161190f90612983565b60405180910390fd5b565b60008060009054906101000a900473ffffffffffffffffffffffffffffffffffffffff169050816000806101000a81548173ffffffffffffffffffffffffffffffffffffffff021916908373ffffffffffffffffffffffffffffffffffffffff1602179055508173ffffffffffffffffffffffffffffffffffffffff168173ffffffffffffffffffffffffffffffffffffffff167f8be0079c531659141344cd1fd0a4f28419497f9722a3daafe3b4186f6b6457e060405160405180910390a35050565b600081600001549050919050565b6001816000016000828254019250508190555050565b600033905090565b6040518060c0016040528060008152602001600081526020016000815260200160008152602001606081526020016000151581525090565b828054611a4e9061226a565b90600052602060002090601f016020900481019282611a705760008555611ab7565b82601f10611a8957805160ff1916838001178555611ab7565b82800160010185558215611ab7579182015b82811115611ab6578251825591602001919060010190611a9b565b5b509050611ac49190611ac8565b5090565b5b80821115611ae1576000816000905550600101611ac9565b5090565b600081519050919050565b600082825260208201905092915050565b6000819050602082019050919050565b600073ffffffffffffffffffffffffffffffffffffffff82169050919050565b6000611b3c82611b11565b9050919050565b611b4c81611b31565b82525050565b6000611b5e8383611b43565b60208301905092915050565b6000602082019050919050565b6000611b8282611ae5565b611b8c8185611af0565b9350611b9783611b01565b8060005b83811015611bc8578151611baf8882611b52565b9750611bba83611b6a565b925050600181019050611b9b565b5085935050505092915050565b60006020820190508181036000830152611bef8184611b77565b905092915050565b600080fd5b600080fd5b611c0a81611b31565b8114611c1557600080fd5b50565b600081359050611c2781611c01565b92915050565b600060208284031215611c4357611c42611bf7565b5b6000611c5184828501611c18565b91505092915050565b6000819050919050565b611c6d81611c5a565b82525050565b6000602082019050611c886000830184611c64565b92915050565b611c9781611c5a565b8114611ca257600080fd5b50565b600081359050611cb481611c8e565b92915050565b60008060408385031215611cd157611cd0611bf7565b5b6000611cdf85828601611c18565b9250506020611cf085828601611ca5565b9150509250929050565b600060ff82169050919050565b611d1081611cfa565b82525050565b6000602082019050611d2b6000830184611d07565b92915050565b600081519050919050565b600082825260208201905092915050565b6000819050602082019050919050565b611d6681611c5a565b82525050565b600081519050919050565b600082825260208201905092915050565b60005b83811015611da6578082015181840152602081019050611d8b565b83811115611db5576000848401525b50505050565b6000601f19601f8301169050919050565b6000611dd782611d6c565b611de18185611d77565b9350611df1818560208601611d88565b611dfa81611dbb565b840191505092915050565b60008115159050919050565b611e1a81611e05565b82525050565b600060c083016000830151611e386000860182611d5d565b506020830151611e4b6020860182611d5d565b506040830151611e5e6040860182611d5d565b506060830151611e716060860182611d5d565b5060808301518482036080860152611e898282611dcc565b91505060a0830151611e9e60a0860182611e11565b508091505092915050565b6000611eb58383611e20565b905092915050565b6000602082019050919050565b6000611ed582611d31565b611edf8185611d3c565b935083602082028501611ef185611d4d565b8060005b85811015611f2d5784840389528151611f0e8582611ea9565b9450611f1983611ebd565b925060208a01995050600181019050611ef5565b50829750879550505050505092915050565b60006020820190508181036000830152611f598184611eca565b905092915050565b600060208284031215611f7757611f76611bf7565b5b6000611f8584828501611ca5565b91505092915050565b611f9781611b31565b82525050565b6000602082019050611fb26000830184611f8e565b92915050565b60008060408385031215611fcf57611fce611bf7565b5b6000611fdd85828601611ca5565b9250506020611fee85828601611ca5565b9150509250929050565b600080fd5b600080fd5b600080fd5b60008083601f84011261201d5761201c611ff8565b5b8235905067ffffffffffffffff81111561203a57612039611ffd565b5b60208301915083600182028301111561205657612055612002565b5b9250929050565b6000806000806060858703121561207757612076611bf7565b5b600085013567ffffffffffffffff81111561209557612094611bfc565b5b6120a187828801612007565b945094505060206120b487828801611ca5565b92505060406120c587828801611ca5565b91505092959194509250565b600082825260208201905092915050565b60006120ed82611d6c565b6120f781856120d1565b9350612107818560208601611d88565b61211081611dbb565b840191505092915050565b61212481611e05565b82525050565b600060c08201905061213f6000830189611c64565b61214c6020830188611c64565b6121596040830187611c64565b6121666060830186611c64565b818103608083015261217881856120e2565b905061218760a083018461211b565b979650505050505050565b6000819050919050565b60006121b76121b26121ad84611b11565b612192565b611b11565b9050919050565b60006121c98261219c565b9050919050565b60006121db826121be565b9050919050565b6121eb816121d0565b82525050565b600060208201905061220660008301846121e2565b92915050565b7f4e487b7100000000000000000000000000000000000000000000000000000000600052603260045260246000fd5b7f4e487b7100000000000000000000000000000000000000000000000000000000600052602260045260246000fd5b6000600282049050600182168061228257607f821691505b602082108114156122965761229561223b565b5b50919050565b7f4e487b7100000000000000000000000000000000000000000000000000000000600052601160045260246000fd5b60006122d682611c5a565b91507fffffffffffffffffffffffffffffffffffffffffffffffffffffffffffffffff8214156123095761230861229c565b5b600182019050919050565b7f4e487b7100000000000000000000000000000000000000000000000000000000600052604160045260246000fd5b7f4e6f207265776172647320746f2072656465656d000000000000000000000000600082015250565b60006123796014836120d1565b915061238482612343565b602082019050919050565b600060208201905081810360008301526123a88161236c565b9050919050565b60006040820190506123c46000830185611f8e565b6123d16020830184611c64565b9392505050565b6123e181611e05565b81146123ec57600080fd5b50565b6000815190506123fe816123d8565b92915050565b60006020828403121561241a57612419611bf7565b5b6000612428848285016123ef565b91505092915050565b7f43616c6c6572206973206e6f7420746865206f776e6572206f6620746865206460008201527f65706f7369742e00000000000000000000000000000000000000000000000000602082015250565b600061248d6027836120d1565b915061249882612431565b604082019050919050565b600060208201905081810360008301526124bc81612480565b9050919050565b7f4e6f20656e6f7567682066756e64732e00000000000000000000000000000000600082015250565b60006124f96010836120d1565b9150612504826124c3565b602082019050919050565b60006020820190508181036000830152612528816124ec565b9050919050565b600061253a82611c5a565b915061254583611c5a565b9250817fffffffffffffffffffffffffffffffffffffffffffffffffffffffffffffffff048311821515161561257e5761257d61229c565b5b828202905092915050565b7f4e487b7100000000000000000000000000000000000000000000000000000000600052601260045260246000fd5b60006125c382611c5a565b91506125ce83611c5a565b9250826125de576125dd612589565b5b828204905092915050565b7f526577617264732063616e6e6f7420626520736574207965742c20646561646c60008201527f696e65206e6f7420726561636865640000000000000000000000000000000000602082015250565b6000612645602f836120d1565b9150612650826125e9565b604082019050919050565b6000602082019050818103600083015261267481612638565b9050919050565b60006040820190506126906000830185611f8e565b61269d6020830184611f8e565b9392505050565b6000815190506126b381611c8e565b92915050565b6000602082840312156126cf576126ce611bf7565b5b60006126dd848285016126a4565b91505092915050565b7f496e73756666696369656e7420616c6c6f77616e636500000000000000000000600082015250565b600061271c6016836120d1565b9150612727826126e6565b602082019050919050565b6000602082019050818103600083015261274b8161270f565b9050919050565b7f5769746864726177616c20646174652073686f756c6420626520696e2074686560008201527f206675747572652e000000000000000000000000000000000000000000000000602082015250565b60006127ae6028836120d1565b91506127b982612752565b604082019050919050565b600060208201905081810360008301526127dd816127a1565b9050919050565b60006060820190506127f96000830186611f8e565b6128066020830185611f8e565b6128136040830184611c64565b949350505050565b7f4f776e61626c653a206e6577206f776e657220697320746865207a65726f206160008201527f6464726573730000000000000000000000000000000000000000000000000000602082015250565b60006128776026836120d1565b91506128828261281b565b604082019050919050565b600060208201905081810360008301526128a68161286a565b9050919050565b60006128b882611c5a565b91506128c383611c5a565b9250827fffffffffffffffffffffffffffffffffffffffffffffffffffffffffffffffff038211156128f8576128f761229c565b5b828201905092915050565b600061290e82611c5a565b915061291983611c5a565b92508282101561292c5761292b61229c565b5b828203905092915050565b7f4f776e61626c653a2063616c6c6572206973206e6f7420746865206f776e6572600082015250565b600061296d6020836120d1565b915061297882612937565b602082019050919050565b6000602082019050818103600083015261299c81612960565b905091905056fea26469706673582212207de0e95f8405c1906bdea152e1cdf33ddffc4a63766a3ceec1ceb7e5a8caf26264736f6c63430008090033",
  "linkReferences": {},
  "deployedLinkReferences": {}
}